{
  "contractName": "LoanContract",
  "abi": [
    {
      "constant": true,
      "inputs": [],
      "name": "owner",
      "outputs": [
        {
          "name": "",
          "type": "address"
        }
      ],
      "payable": false,
      "stateMutability": "view",
      "type": "function"
    },
    {
      "constant": true,
      "inputs": [],
      "name": "totalLoans",
      "outputs": [
        {
          "name": "",
          "type": "uint256"
        }
      ],
      "payable": false,
      "stateMutability": "view",
      "type": "function"
    },
    {
      "constant": true,
      "inputs": [
        {
          "name": "",
          "type": "uint256"
        }
      ],
      "name": "loans",
      "outputs": [
        {
          "name": "id",
          "type": "uint256"
        },
        {
          "name": "borrower",
          "type": "address"
        },
        {
          "name": "amount",
          "type": "uint256"
        },
        {
          "name": "interestRate",
          "type": "uint256"
        },
        {
          "name": "repaymentPeriod",
          "type": "uint256"
        },
        {
          "name": "repaid",
          "type": "bool"
        }
      ],
      "payable": false,
      "stateMutability": "view",
      "type": "function"
    },
    {
      "inputs": [],
      "payable": false,
      "stateMutability": "nonpayable",
      "type": "constructor"
    },
    {
      "anonymous": false,
      "inputs": [
        {
          "indexed": false,
          "name": "id",
          "type": "uint256"
        },
        {
          "indexed": false,
          "name": "borrower",
          "type": "address"
        },
        {
          "indexed": false,
          "name": "amount",
          "type": "uint256"
        },
        {
          "indexed": false,
          "name": "interestRate",
          "type": "uint256"
        },
        {
          "indexed": false,
          "name": "repaymentPeriod",
          "type": "uint256"
        }
      ],
      "name": "LoanCreated",
      "type": "event"
    },
    {
      "anonymous": false,
      "inputs": [
        {
          "indexed": false,
          "name": "id",
          "type": "uint256"
        }
      ],
      "name": "LoanRepaid",
      "type": "event"
    },
    {
      "constant": false,
      "inputs": [
        {
          "name": "amount",
          "type": "uint256"
        },
        {
          "name": "interestRate",
          "type": "uint256"
        },
        {
          "name": "repaymentPeriod",
          "type": "uint256"
        }
      ],
      "name": "createLoan",
      "outputs": [],
      "payable": false,
      "stateMutability": "nonpayable",
      "type": "function"
    },
    {
      "constant": false,
      "inputs": [
        {
          "name": "loanId",
          "type": "uint256"
        }
      ],
      "name": "repayLoan",
      "outputs": [],
      "payable": true,
      "stateMutability": "payable",
      "type": "function"
    }
  ],
  "bytecode": "0x608060405234801561001057600080fd5b50336000806101000a81548173ffffffffffffffffffffffffffffffffffffffff021916908373ffffffffffffffffffffffffffffffffffffffff1602179055506106b7806100606000396000f3fe608060405260043610610067576000357c0100000000000000000000000000000000000000000000000000000000900480638da5cb5b1461006c578063904b513b146100c3578063ab7b1c8914610112578063cc952b5714610140578063e1ec3c681461016b575b600080fd5b34801561007857600080fd5b5061008161020d565b604051808273ffffffffffffffffffffffffffffffffffffffff1673ffffffffffffffffffffffffffffffffffffffff16815260200191505060405180910390f35b3480156100cf57600080fd5b50610110600480360360608110156100e657600080fd5b81019080803590602001909291908035906020019092919080359060200190929190505050610232565b005b61013e6004803603602081101561012857600080fd5b81019080803590602001909291905050506103be565b005b34801561014c57600080fd5b5061015561061c565b6040518082815260200191505060405180910390f35b34801561017757600080fd5b506101a46004803603602081101561018e57600080fd5b8101908080359060200190929190505050610622565b604051808781526020018673ffffffffffffffffffffffffffffffffffffffff1673ffffffffffffffffffffffffffffffffffffffff16815260200185815260200184815260200183815260200182151515158152602001965050505050505060405180910390f35b6000809054906101000a900473ffffffffffffffffffffffffffffffffffffffff1681565b60016000815480929190600101919050555060c06040519081016040528060015481526020013373ffffffffffffffffffffffffffffffffffffffff168152602001848152602001838152602001828152602001600015158152506002600060015481526020019081526020016000206000820151816000015560208201518160010160006101000a81548173ffffffffffffffffffffffffffffffffffffffff021916908373ffffffffffffffffffffffffffffffffffffffff16021790555060408201518160020155606082015181600301556080820151816004015560a08201518160050160006101000a81548160ff0219169083151502179055509050507fb2cca1719ad611d325136b9c9a4357f412d33694d93c60d4c1b6e922d524cf5960015433858585604051808681526020018573ffffffffffffffffffffffffffffffffffffffff1673ffffffffffffffffffffffffffffffffffffffff1681526020018481526020018381526020018281526020019550505050505060405180910390a1505050565b60006002600083815260200190815260200160002090508060050160009054906101000a900460ff1615151561045c576040517f08c379a00000000000000000000000000000000000000000000000000000000081526004018080602001828103825260138152602001807f4c6f616e20616c7265616479207265706169640000000000000000000000000081525060200191505060405180910390fd5b8060010160009054906101000a900473ffffffffffffffffffffffffffffffffffffffff1673ffffffffffffffffffffffffffffffffffffffff163373ffffffffffffffffffffffffffffffffffffffff16141515610549576040517f08c379a00000000000000000000000000000000000000000000000000000000081526004018080602001828103825260248152602001807f4f6e6c792074686520626f72726f7765722063616e207265706179207468652081526020017f6c6f616e0000000000000000000000000000000000000000000000000000000081525060400191505060405180910390fd5b8060020154341415156105c4576040517f08c379a000000000000000000000000000000000000000000000000000000000815260040180806020018281038252601a8152602001807f496e636f72726563742072657061796d656e7420616d6f756e7400000000000081525060200191505060405180910390fd5b60018160050160006101000a81548160ff0219169083151502179055507f9a7851747cd7ffb3fe0a32caf3da48b31f27cebe131267051640f8b72fc47186826040518082815260200191505060405180910390a15050565b60015481565b60026020528060005260406000206000915090508060000154908060010160009054906101000a900473ffffffffffffffffffffffffffffffffffffffff16908060020154908060030154908060040154908060050160009054906101000a900460ff1690508656fea165627a7a7230582066588904575a66341fcc4cb9d0f6a8c705ce1a6334a717f1e79ebe12a609550d0029",
  "source": "// SPDX-License-Identifier: MIT\n// LoanContract.sol\npragma solidity >=0.4.22 <0.9.0;\n\ncontract LoanContract {\n    address public owner;\n    uint public totalLoans;\n\n    struct Loan {\n        uint id;\n        address borrower;\n        uint amount;\n        uint interestRate;\n        uint repaymentPeriod;\n        bool repaid;\n    }\n\n    mapping(uint => Loan) public loans;\n\n    event LoanCreated(uint id, address borrower, uint amount, uint interestRate, uint repaymentPeriod);\n    event LoanRepaid(uint id);\n\n    modifier onlyOwner() {\n        require(msg.sender == owner, \"Only the owner can call this function\");\n        _;\n    }\n\n    constructor() public {  // Specify the visibility as 'public'\n        owner = msg.sender;\n    }\n\n    function createLoan(uint amount, uint interestRate, uint repaymentPeriod) external {\n        totalLoans++;\n        loans[totalLoans] = Loan(totalLoans, msg.sender, amount, interestRate, repaymentPeriod, false);\n        emit LoanCreated(totalLoans, msg.sender, amount, interestRate, repaymentPeriod);\n    }\n\n    function repayLoan(uint loanId) external payable {\n        Loan storage loan = loans[loanId];\n        require(!loan.repaid, \"Loan already repaid\");\n        require(msg.sender == loan.borrower, \"Only the borrower can repay the loan\");\n        require(msg.value == loan.amount, \"Incorrect repayment amount\");\n\n        loan.repaid = true;\n        emit LoanRepaid(loanId);\n    }\n}\n",
  "sourcePath": "/Users/adars/p2pdapp/contracts/LoanContract.sol",
  "compiler": {
    "name": "solc",
    "version": "0.5.1+commit.c8a2cb62.Emscripten.clang"
  },
  "schemaVersion": "3.4.16",
  "updatedAt": "2024-02-03T10:40:23.207Z",
  "networkType": "ethereum",
  "devdoc": {
    "methods": {}
  },
  "userdoc": {
    "methods": {}
  }
}