{
  "contractName": "LoanContract",
  "abi": [
    {
      "inputs": [],
      "stateMutability": "nonpayable",
      "type": "constructor"
    },
    {
      "anonymous": false,
      "inputs": [
        {
          "indexed": false,
          "internalType": "uint256",
          "name": "id",
          "type": "uint256"
        },
        {
          "indexed": false,
          "internalType": "address",
          "name": "borrower",
          "type": "address"
        },
        {
          "indexed": false,
          "internalType": "uint256",
          "name": "amount",
          "type": "uint256"
        },
        {
          "indexed": false,
          "internalType": "uint256",
          "name": "interestRate",
          "type": "uint256"
        },
        {
          "indexed": false,
          "internalType": "uint256",
          "name": "repaymentPeriod",
          "type": "uint256"
        }
      ],
      "name": "LoanCreated",
      "type": "event"
    },
    {
      "anonymous": false,
      "inputs": [
        {
          "indexed": false,
          "internalType": "uint256",
          "name": "id",
          "type": "uint256"
        }
      ],
      "name": "LoanRepaid",
      "type": "event"
    },
    {
      "inputs": [
        {
          "internalType": "uint256",
          "name": "",
          "type": "uint256"
        }
      ],
      "name": "loans",
      "outputs": [
        {
          "internalType": "uint256",
          "name": "id",
          "type": "uint256"
        },
        {
          "internalType": "address",
          "name": "borrower",
          "type": "address"
        },
        {
          "internalType": "uint256",
          "name": "amount",
          "type": "uint256"
        },
        {
          "internalType": "uint256",
          "name": "interestRate",
          "type": "uint256"
        },
        {
          "internalType": "uint256",
          "name": "repaymentPeriod",
          "type": "uint256"
        },
        {
          "internalType": "bool",
          "name": "repaid",
          "type": "bool"
        }
      ],
      "stateMutability": "view",
      "type": "function"
    },
    {
      "inputs": [],
      "name": "owner",
      "outputs": [
        {
          "internalType": "address",
          "name": "",
          "type": "address"
        }
      ],
      "stateMutability": "view",
      "type": "function"
    },
    {
      "inputs": [],
      "name": "totalLoans",
      "outputs": [
        {
          "internalType": "uint256",
          "name": "",
          "type": "uint256"
        }
      ],
      "stateMutability": "view",
      "type": "function"
    },
    {
      "inputs": [
        {
          "internalType": "uint256",
          "name": "amount",
          "type": "uint256"
        },
        {
          "internalType": "uint256",
          "name": "interestRate",
          "type": "uint256"
        },
        {
          "internalType": "uint256",
          "name": "repaymentPeriod",
          "type": "uint256"
        }
      ],
      "name": "createLoan",
      "outputs": [],
      "stateMutability": "nonpayable",
      "type": "function"
    },
    {
      "inputs": [
        {
          "internalType": "uint256",
          "name": "loanId",
          "type": "uint256"
        }
      ],
      "name": "repayLoan",
      "outputs": [],
      "stateMutability": "payable",
      "type": "function"
    }
  ],
  "bytecode": "0x608060405234801561000f575f80fd5b50335f806101000a81548173ffffffffffffffffffffffffffffffffffffffff021916908373ffffffffffffffffffffffffffffffffffffffff16021790555061089e8061005c5f395ff3fe608060405260043610610049575f3560e01c80638da5cb5b1461004d578063904b513b14610077578063ab7b1c891461009f578063cc952b57146100bb578063e1ec3c68146100e5575b5f80fd5b348015610058575f80fd5b50610061610126565b60405161006e91906104c9565b60405180910390f35b348015610082575f80fd5b5061009d60048036038101906100989190610519565b610149565b005b6100b960048036038101906100b49190610569565b61028e565b005b3480156100c6575f80fd5b506100cf610421565b6040516100dc91906105a3565b60405180910390f35b3480156100f0575f80fd5b5061010b60048036038101906101069190610569565b610427565b60405161011d969594939291906105d6565b60405180910390f35b5f8054906101000a900473ffffffffffffffffffffffffffffffffffffffff1681565b60015f81548092919061015b90610662565b91905055506040518060c0016040528060015481526020013373ffffffffffffffffffffffffffffffffffffffff1681526020018481526020018381526020018281526020015f151581525060025f60015481526020019081526020015f205f820151815f01556020820151816001015f6101000a81548173ffffffffffffffffffffffffffffffffffffffff021916908373ffffffffffffffffffffffffffffffffffffffff16021790555060408201518160020155606082015181600301556080820151816004015560a0820151816005015f6101000a81548160ff0219169083151502179055509050507fb2cca1719ad611d325136b9c9a4357f412d33694d93c60d4c1b6e922d524cf59600154338585856040516102819594939291906106a9565b60405180910390a1505050565b5f60025f8381526020019081526020015f209050806005015f9054906101000a900460ff16156102f3576040517f08c379a00000000000000000000000000000000000000000000000000000000081526004016102ea90610754565b60405180910390fd5b806001015f9054906101000a900473ffffffffffffffffffffffffffffffffffffffff1673ffffffffffffffffffffffffffffffffffffffff163373ffffffffffffffffffffffffffffffffffffffff1614610384576040517f08c379a000000000000000000000000000000000000000000000000000000000815260040161037b906107e2565b60405180910390fd5b806002015434146103ca576040517f08c379a00000000000000000000000000000000000000000000000000000000081526004016103c19061084a565b60405180910390fd5b6001816005015f6101000a81548160ff0219169083151502179055507f9a7851747cd7ffb3fe0a32caf3da48b31f27cebe131267051640f8b72fc471868260405161041591906105a3565b60405180910390a15050565b60015481565b6002602052805f5260405f205f91509050805f015490806001015f9054906101000a900473ffffffffffffffffffffffffffffffffffffffff1690806002015490806003015490806004015490806005015f9054906101000a900460ff16905086565b5f73ffffffffffffffffffffffffffffffffffffffff82169050919050565b5f6104b38261048a565b9050919050565b6104c3816104a9565b82525050565b5f6020820190506104dc5f8301846104ba565b92915050565b5f80fd5b5f819050919050565b6104f8816104e6565b8114610502575f80fd5b50565b5f81359050610513816104ef565b92915050565b5f805f606084860312156105305761052f6104e2565b5b5f61053d86828701610505565b935050602061054e86828701610505565b925050604061055f86828701610505565b9150509250925092565b5f6020828403121561057e5761057d6104e2565b5b5f61058b84828501610505565b91505092915050565b61059d816104e6565b82525050565b5f6020820190506105b65f830184610594565b92915050565b5f8115159050919050565b6105d0816105bc565b82525050565b5f60c0820190506105e95f830189610594565b6105f660208301886104ba565b6106036040830187610594565b6106106060830186610594565b61061d6080830185610594565b61062a60a08301846105c7565b979650505050505050565b7f4e487b71000000000000000000000000000000000000000000000000000000005f52601160045260245ffd5b5f61066c826104e6565b91507fffffffffffffffffffffffffffffffffffffffffffffffffffffffffffffffff820361069e5761069d610635565b5b600182019050919050565b5f60a0820190506106bc5f830188610594565b6106c960208301876104ba565b6106d66040830186610594565b6106e36060830185610594565b6106f06080830184610594565b9695505050505050565b5f82825260208201905092915050565b7f4c6f616e20616c726561647920726570616964000000000000000000000000005f82015250565b5f61073e6013836106fa565b91506107498261070a565b602082019050919050565b5f6020820190508181035f83015261076b81610732565b9050919050565b7f4f6e6c792074686520626f72726f7765722063616e20726570617920746865205f8201527f6c6f616e00000000000000000000000000000000000000000000000000000000602082015250565b5f6107cc6024836106fa565b91506107d782610772565b604082019050919050565b5f6020820190508181035f8301526107f9816107c0565b9050919050565b7f496e636f72726563742072657061796d656e7420616d6f756e740000000000005f82015250565b5f610834601a836106fa565b915061083f82610800565b602082019050919050565b5f6020820190508181035f83015261086181610828565b905091905056fea264697066735822122045cb37a308052e6cdf6140d001ebdb1fb55dc6b88010acd654b05ffc09ba2b6c64736f6c63430008150033",
  "immutableReferences": {},
  "source": "// LoanContract.sol\npragma solidity ^0.8.0;\n\ncontract LoanContract {\n    address public owner;\n    uint public totalLoans;\n\n    struct Loan {\n        uint id;\n        address borrower;\n        uint amount;\n        uint interestRate;\n        uint repaymentPeriod;\n        bool repaid;\n    }\n\n    mapping(uint => Loan) public loans;\n\n    event LoanCreated(uint id, address borrower, uint amount, uint interestRate, uint repaymentPeriod);\n    event LoanRepaid(uint id);\n\n    modifier onlyOwner() {\n        require(msg.sender == owner, \"Only the owner can call this function\");\n        _;\n    }\n\n    constructor() {\n        owner = msg.sender;\n    }\n\n    function createLoan(uint amount, uint interestRate, uint repaymentPeriod) external {\n        totalLoans++;\n        loans[totalLoans] = Loan(totalLoans, msg.sender, amount, interestRate, repaymentPeriod, false);\n        emit LoanCreated(totalLoans, msg.sender, amount, interestRate, repaymentPeriod);\n    }\n\n    function repayLoan(uint loanId) external payable {\n        Loan storage loan = loans[loanId];\n        require(!loan.repaid, \"Loan already repaid\");\n        require(msg.sender == loan.borrower, \"Only the borrower can repay the loan\");\n        require(msg.value == loan.amount, \"Incorrect repayment amount\");\n\n        loan.repaid = true;\n        emit LoanRepaid(loanId);\n    }\n}\n",
  "sourcePath": "/Users/adars/p2pdapp/contracts/LoanContract.sol",
  "compiler": {
    "name": "solc",
    "version": "0.8.21+commit.d9974bed.Emscripten.clang"
  },
  "schemaVersion": "3.4.16",
  "updatedAt": "2024-02-03T06:06:20.398Z",
  "devdoc": {
    "kind": "dev",
    "methods": {},
    "version": 1
  },
  "userdoc": {
    "kind": "user",
    "methods": {},
    "version": 1
  }
}